:020000040800F2
:1000000090E90220B9020008373C0008E73B0008ED
:10001000353C00088D21000835450008000000002F
:100020000000000000000000000000005B3C000831
:10003000A923000800000000593C0008E13C00082A
:10004000D3020008D3020008D3020008D30200083C
:10005000D3020008D3020008AB230008D302000833
:10006000B9230008BF230008D3020008D302000808
:10007000D3020008D3020008D3020008D30200080C
:10008000D3020008D3020008D3020008D3020008FC
:10009000D3020008D3020008D3020008D3020008EC
:1000A000D3020008D3020008D3020008D3020008DC
:1000B000D3020008D3020008D3020008D3020008CC
:1000C000D3020008D3020008D3020008D3020008BC
:1000D000D3020008F1440008D3020008D30200084C
:1000E000B1230008D3020008D3020008D30200089D
:1000F000D3020008D3020008D3020008D30200088C
:10010000D3020008D3020008D3020008D30200087B
:10011000D3020008D3020008D3020008D30200086B
:1001200091210008D3020008D3020008D30200087E
:10013000D3020008D3020008D3020008D30200084B
:10014000D3020008D3020008D3020008D30200083B
:10015000D3020008D3020008D3020008D30200082B
:10016000D3020008D3020008D3020008D30200081B
:10017000D3020008D3020008D302000800000000E8
:10018000D3020008D3020008D3020008D3020008FB
:10019000D3020008D3020008D3020008D3020008EB
:1001A000D3020008D3020008D3020008D3020008DB
:1001B000D3020008D3020008D3020008D3020008CB
:1001C000D3020008D302000800000000D302000898
:1001D000D3020008D3020008D3020008D3020008AB
:1001E000D3020008D3020008D3020008D30200089B
:1001F000D3020008D302000800F002F800F04CF827
:100200000AA090E8000C82448344AAF10107DA4571
:1002100001D100F041F8AFF2090EBAE80F0013F077
:10022000010F18BFFB1A43F00103184700D5000067
:1002300020D50000103A24BF78C878C1FAD85207F8
:1002400024BF30C830C144BF04680C607047000050
:100250000023002400250026103A28BF78C1FBD8CF
:10026000520728BF30C148BF0B607047662904F0B1
:10027000E185692900F09E86002070471FB504F0D3
:10028000C3FD01F05DF904000020002104F0A6FD8B
:10029000E0601FBD10B510BD01F072FA1146FFF706
:1002A000EDFF04F079FB01F090FA03B4FFF7F2FFE1
:1002B00003BC04F0D1FA0000094880470948004710
:1002C000FEE7FEE7FEE7FEE7FEE7FEE7FEE7FEE706
:1002D000FEE7FEE704480549054A064B7047000063
:1002E000E53C0008F901000890E3022090E90220B3
:1002F00090E5022090E502209FED3E0A5FEA920C15
:1003000059D000BFD0ED000A90ED011A0B1D60EE30
:10031000A00A083041EE010AF5EEC00AF1EE10FA2B
:10032000A6BFB1EEE01A81ED001A81ED000AD0ED12
:10033000000A90ED011A00F1080160EEA00A181DF4
:1003400041EE010AF5EEC00AF1EE10FAA6BFB1EED9
:10035000E01A83ED001A83ED000AD1ED000A91ED59
:10036000011A031D60EEA00A083141EE010AF5EE04
:10037000C00AF1EE10FAA6BFB1EEE01A80ED001A45
:1003800080ED000AD1ED000A91ED011A081D60EE22
:10039000A00A191D001D41EE010AF5EEC00AF1EE9A
:1003A00010FAA6BFB1EEE01A83ED001A83ED000A41
:1003B000BCF1010CA6D112F0030208BF704700BFC8
:1003C000D0ED000A90ED011A08300B4660EEA00A4D
:1003D000091D41EE010AF5EEC00AF1EE10FAA6BFC2
:1003E000B1EEE01A83ED001A83ED000A521EE7D148
:1003F00070470000000000002DE9F04F00264FEA92
:10040000910C35462DED048B82B06446CDF804C0C6
:1004100006EB0C0909EB0C0808EB0C0700EBC60A0D
:1004200000EBC808DAED000A98ED001A00EBC909E4
:1004300000EBC70730EE810A70EEC12A9AED013A4F
:10044000D8ED014AD9ED011AD7ED013A99ED005ADC
:1004500097ED002A73EE240A31EEA34A35EE021A14
:1004600033EE643A71EEE34A4FEA450B35EE422A29
:100470000BEB050E30EE015A02EBCB0B70EE845AFB
:10048000DBED001ADBED013A30EE410A70EEC40AF2
:100490008AED005ACAED015A32EEA41A32EEE44A4D
:1004A00002EBC50A73EE422A20EE216A60EEA11A21
:1004B00032EE033ADAED004A60EEA30A9AED012A21
:1004C00060EE233A21EE240A62EEA44A02EBCE0B40
:1004D00062EE822A61EE026A9BED005ADBED015A60
:1004E00030EE220A23EE052A74EEE62A24EE051ADF
:1004F00023EE253A76EE204A24EE254A71EEE31AE1
:10050000C9ED004A71EE030AC9ED011A32EE441A30
:1005100088ED000AC8ED012AC7ED000A641E87EDC8
:10052000011A06F101061D447FF472AF019C4FF6DB
:10053000FF7505EA830B0094042C7CD90027E04664
:100540004FEA9C0CBA46ACF1010E7D00EC1902EBAF
:10055000C70302EBC50502EBC40493ED005A93ED0B
:10056000014AD5ED002AD5ED015AD4ED004AD4ED6B
:10057000013A5F444FEA0A0303EB0C0505EB0C0458
:1005800004EB0C0900EBC30600EBC40496ED001A63
:1005900094ED002A00EBC50500EBC90996ED013A80
:1005A00094ED016AD5ED007A99ED007A71EE421A68
:1005B00031EE022A33EE461A33EE066A37EE873AF8
:1005C00095ED010AD9ED010A77EEC76A72EE437A1A
:1005D00030EE607A30EE200A72EE038A434471EE08
:1005E000870A31EEC77A71EE661A36EE811A76EE18
:1005F000406A76EE009A21EE852A20EE850A61EEA9
:10060000841A20EE846A67EEA20A26EEA23A27EE4A
:10061000249A21EE248AC6ED008A8B4266EEA56AF2
:1006200067EEA57A21EE231A27EE237AC6ED019A0A
:1006300030EE210A00E026E072EE461A70EEA60ABD
:1006400033EE672A39EE011AC5ED000A85ED012A5D
:1006500038EE473A84ED000AC4ED011A89ED001A1C
:1006600089ED013A88D30AF1010AF2457FF66DAFB0
:10067000009B9B080093009C4FF6FF7303EA8B0BD3
:10068000042C3FF65BAF0199D0ED002A90ED041ADF
:10069000D0ED010A90ED054A72EE811AD0ED023AD2
:1006A00090ED063A72EEC12A30EE841A90ED030AFC
:1006B00090ED072A70EEC40A33EE834A73EEC33A14
:1006C00030EE023A30EE420A31EE842A71EEC44A2C
:1006D00071EE031A31EE433A80ED002A32EE801AB1
:1006E000C0ED011A30EEE34AC0ED024A72EEC02AB4
:1006F00080ED033A33EEA00A80ED041A80ED054A3E
:10070000C0ED062A80ED070A491E00F12000BBD18A
:1007100002B0BDEC048BBDE8F08F2DE9F04F002650
:100720004FEA910C35462DED068B82B06446CDF82C
:1007300004C000BF06EB0C0808EB0C0909EB0C0722
:1007400000EBC80800EBC70700EBC60A00EBC909BD
:10075000DAED000A99ED001ADAED015A99ED013A45
:1007600030EE815A98ED002AD8ED013A30EEC11AE8
:10077000D7ED002AD7ED014A75EE830A72EE221AF0
:1007800033EEA44A4FEA450B35EEC33A0BEB050EA8
:1007900072EE622A73EEE44A02EBCB0B30EE846A0F
:1007A00075EE215A9BED002ADBED013A30EEC44A8A
:1007B00075EE611ACAED005A8AED016A71EE640A9B
:1007C00061EE826A24EE022A31EE241A24EE234AD4
:1007D00073EE224A02EBC50A61EEA33A33EE623AA7
:1007E000DAED002ADAED015A02EBCE0B60EEA21A26
:1007F00064EEA22A64EEA54A9BED005A9BED016AC5
:1008000060EEA55A61EE050A23EE055A23EE063A7C
:1008100036EEC44A21EE061A32EE232A71EEE41AAD
:1008200072EEA52A88ED004A70EEC30A88ED012A0F
:1008300035EE011AC9ED001AC9ED012AC7ED000A0B
:10084000641E87ED011A06F101061D447FF472AFA4
:10085000019C4FF6FF7505EA830B0094042C7CD9AC
:100860000027E0464FEA9C0CBA46ACF1010E7D0031
:10087000EC1902EBC70302EBC50502EBC404D3ED90
:10088000005A93ED015A95ED002AD5ED014AD4EDB9
:10089000002A94ED016A5F444FEA0A0303EB0C055A
:1008A00005EB0C0404EB0C0900EBC30600EBC404DD
:1008B00096ED007A94ED001A96ED014A94ED013A16
:1008C00000EBC50500EBC90977EE413AD5ED001AFA
:1008D000D9ED007A37EE011A34EE437A34EE033A5A
:1008E00031EEE74AD5ED010AD9ED016A71EEA71A9A
:1008F00037EE448A70EEE67A70EEA66A71EE218ACF
:1009000028EE229A73EEE70A73EEA77A77EE043A9E
:1009100033EE26AA31EE617A33EE664A20EEA51A4E
:1009200023EE853A63EEA51A60EE856A67EE020A49
:1009300064EE023A67EEA29AC6ED008A43448B4207
:1009400024EE244A27EE247A28EE068A67EE867A79
:1009500086ED01AA31EE431A00E026E070EEC40AEB
:1009600033EE873A71EEA61AC5ED000A79EEC83A61
:1009700085ED013A39EE274A84ED001AC4ED011ADB
:10098000C9ED003A89ED014A88D30AF1010AF2451E
:100990007FF66DAF009B9B080093009C4FF6FF73A2
:1009A00003EA8B0B042C3FF65BAF0199D0ED000AF4
:1009B000D0ED042A90ED012A90ED054A70EEA23A9E
:1009C00090ED021AD0ED064A70EEE20A72EE042AA9
:1009D000D0ED031A90ED073A32EE442A31EE244A64
:1009E00031EE641A71EE834A71EEC31A33EE843A23
:1009F00073EEC43A32EEA44A72EEE42A70EEE14A93
:100A000070EEA11A72EE010A32EE415A23EE001A7C
:100A100024EE002A23EE803A62EE802A80ED001A4E
:100A200064EE803A80ED012A60EE800A80ED023AA1
:100A300021EE804AC0ED032A65EE001AC0ED043AAB
:100A4000C0ED050A80ED064AC0ED071A491E00F107
:100A50002000ABD102B0BDEC068BBDE8F08F70B5C5
:100A6000044680780D4601282188A38962680ED04B
:100A70002846FFF7C1FCE078012818BF70BDE28965
:100A800028462188A368BDE8704000F067B994ED5E
:100A9000040A2846FFF741FEEDE7000082700022BD
:100AA000C370B1F5807F234B0180436023D004DC09
:100AB000102934D0402928D005E0B1F5806F10D03E
:100AC000B1F5805F03D04FF0FF32104670471B4BEB
:100AD00001219FED190A836080ED040A8181C181A3
:100AE000F3E7174B042181819FED160A8360C181D2
:100AF00080ED040AE9E7144B102181819FED130A70
:100B00008360C18180ED040ADFE7114B40218181C0
:100B10009FED100A8360C18180ED040AD5E70E4B7A
:100B20004FF4807181819FED0D0A8360C18180ED5A
:100B3000040ACAE75856000800008039584E0008D9
:100B40005E4E00080000803A764E00080000803BB0
:100B5000D64E00080000803C565000080000803D42
:100B6000F0B44F1E002590ED000ABE082C4600F19F
:100B7000040C2ED0DCED000A9CED011A0CF10800EB
:100B8000B4EEE00AF1EE10FA3CBF6C1CB0EE600A65
:100B9000B4EEC10AF1EE10FAF0EC010A3CBFAC1C55
:100BA000B0EE410AB4EEE00A00F1040CF1EE10FAE6
:100BB00090ED001A3CBFEC1CB0EE600AB4EEC10A26
:100BC000F1EE10FA3CBF2C1DB0EE410A2D1D761E31
:100BD000D0D117F0030017D0B0F1004F19D2002880
:100BE000C4BF002506460FDDDCED000AF4EEC00AA6
:100BF000F1EE10FA03DD4C19241AB0EE600A6D1CF8
:100C0000761E0CF1040CEFD182ED000A1C60F0BCE2
:100C10007047FCEC010AB4EEE00AF1EE10FA3CBFBA
:100C20000C1AB0EE600A401EF3D1EDE74DF8044D0A
:100C30009FED493A0129F0EE430AB0EE600A5FD019
:100C40008B0825D0B3F1004F5FD2002BC4BF844680
:100C50001C461DDDDCED001A9CED011ADCED022ABC
:100C600001EEA10A71EEA00A9CED032A641E0CF1AC
:100C7000100C71EE200A01EE010A72EEA00A02EEDB
:100C8000A20A72EE200A02EE020AE3D100EB031080
:100C900011F003030CD0B3F1004F54D2002B07DD49
:100CA000B0EC011A5B1E01EE010A70EE810AF7D169
:100CB00001EE101AF7EE001AF8EE412AF8EE413A6A
:100CC000B8EE412AB8EE414A80EEA21A73EEE10A6C
:100CD00074EE612AC2EE201AC0EE220A21EE010A49
:100CE00021EE800A30EEC00AB5EEC00AF1EE10FA2D
:100CF000A1BFF1EEC00AC2ED000A5DF8044B7047D7
:100D000082ED003A5DF8044B704790ED001A01EE59
:100D1000010A30EE811AD0ED010A08305B1E31EE77
:100D2000201A00EEA00AD0ED000A00EEA00A71EE33
:100D3000200A90ED011A00F1080070EE810A01EE20
:100D4000010AE2D1A4E7B0EC011A5B1E01EE010A30
:100D500070EE810AF7D1ABE7000000002DE9F00743
:100D60004FF0010C0CEB51094FF0000C4FEA510809
:100D70006146A8F1020A2DE061452BD200EBCC04BC
:100D800000EBC105D4ED000A95ED000AC5ED000A9F
:100D900084ED000AD4ED010A0CEB090695ED010A79
:100DA00001EB0907C5ED010A00EBC60684ED010A57
:100DB00000EBC707D6ED000A97ED000AC7ED000A61
:100DC00086ED000AD6ED010A97ED010AC7ED010A8A
:100DD00086ED010AC44400EBC10400EBCC0C94ED99
:100DE000020ADCED000A891CC4ED020A8CED000A3F
:100DF000DCED010A94ED030AC4ED030A8CED010A4F
:100E000089B2B3F800C0514503EB4203B4D9BDE841
:100E1000F00770472DE9F04F4FF0010C0CEB510932
:100E20004FF0000C4FEA51086146A8F1020A25E094
:100E3000614523D200EBC10600EBCC0501EB0907AD
:100E4000D6F800E00CEB0904D5F800B000EBC707BA
:100E5000C6F800B000EBC404C5F800E0D6F804E022
:100E6000D5F804B0C6F804B0C5F804E03D682668BB
:100E70003E6025607D6866687E606560C44400EB06
:100E8000C10400EBCC0C891CA5685145DCF800605E
:100E9000A660CCF80050E668DCF80450E560CCF8B9
:100EA0000460B3F800C003EB4203C1D9BDE8F08F82
:100EB0002DE9F00F4F084FF0010C0CEB51084FF0EB
:100EC000000C7C0804BFBDE8F00F704700EB8805FC
:100ED0000146002615E000BFBCEB460F11D950F8C3
:100EE0002CB00CEB0809D1F800A0C1F800B040F814
:100EF0002CA050F829B0D5F800A0C5F800B040F8F3
:100F000029A0BC44D1F8049005F1080506F10106BA
:100F100050F82CA0C1F804A0083140F82C90B3F888
:100F200000C0641E03EB4203D6D1BDE8F00F70474A
:100F3000704700000FB4044910B503AA029800F0EE
:100F4000EDFA10BC5DF814FB400002202DE9F041E1
:100F50000E460446002020622046E168884730B3F0
:100F6000252805D0D4E901219047206A401CF2E7EA
:100F7000E168204600278847050018D0A5F1410008
:100F8000192802D820354FF40067324629462046FA
:100F90002760FFF76BF940B1012804D0F61D26F059
:100FA00007060836D8E7361DD6E72846DAE7206A6E
:100FB000BDE8F0812DE9F04106460024106875294E
:100FC000314616A510D0AFF30080002802DA404267
:100FD00013A507E031688A0701D512A502E0490789
:100FE00004D511A5012401E0AFF3008000210A22FD
:100FF00006F1240709E0B0FBF2FCB0FBF2F302FBC0
:101000001C00303078541846491C0028F3D1234680
:101010002A463046BDE8F04100F017B80000000055
:101020002D0000002B0000002000000070477047DA
:101030007047704710B500F087FA006810BD10B512
:10104000044600F081FA046010BD2DE9F0470D461A
:1010500099469246044600F124080168880604D5A2
:10106000E06921F01001216000E00120A84201DDCB
:10107000471B00E00027A1697A1902EB0900081A52
:10108000A0612078C00602D42046AFF3008000267D
:1010900008E0D4E901211AF806009047206A401CB4
:1010A000761C20624E45F4DB2078C0060AD5204627
:1010B000AFF3008006E0D4E9012130209047206A98
:1010C000401C2062381EA7F10107F4DC07E0D4E9D8
:1010D000012118F805009047206A401C2062281E54
:1010E000A5F10105F3DC2046AFF30080207800066F
:1010F00002D50220BDE8F0870120FBE770472DE90B
:10110000FF4F0C461E464FF0FF378BB0D2E900016F
:10111000DDF860800A908A46C1F30A5505B93D465C
:101120000021084603F076FEBAF1000F00F44000FB
:1011300005DA00EB80004FF4400101EA50004FEA6D
:101140009059B9F1010F00DDB9460A9850EA4A00FA
:101150000ED044F61050A5F2FF3545432F14B8F1D8
:10116000000F1ED07542291E1EDDC9F100021CE0D1
:10117000B8F1010F4FF0000001D0302103E0F2433D
:1011800005E02154401CB042FBDB30460022002128
:1011900021540B99C1F80880C1E900200FB0BDE8C7
:1011A000F08FBD1B6D1CDEE74A4600DA694206A8D7
:1011B00000F06CFA06AB93E8070003AB83E8070086
:1011C00050460A9900F03EFB8DE80700A0F500505C
:1011D0001F3800900398002D0ADD42F21F014A4695
:1011E0000844002303A90390684600F0A7FD09E026
:1011F000A0F500504A461F38002303A90390684613
:1012000000F0B1FD8DE807000004000C03D04FF0A2
:10121000FF30410800E01046B8F1000F03D0002273
:10122000009215461EE0751E05D400F091F930328B
:1012300062556D1EF9D5B3460122084302D0002243
:101240007F1C04E02078302801D100227F1E002A74
:10125000099784D01DE0112D07DA00F079F93032BA
:1012600062556D1C50EA0102F5D1084302D0009886
:10127000C8B10EE00021681E05E0235C625C635487
:101280002254401E491C8142F7DBAB46A81B401E7E
:101290000990002004F80B000B98099AC0F8088008
:1012A000C0E9002B7AE711264FF0000857E72DE937
:1012B000F04F88460446D21D22F0070191B0D1E9D3
:1012C0000001CDE90A0103F036F902460B98C00F80
:1012D00001D02D2007E02068810701D52B2002E0F6
:1012E000202101EAC000032A099001D0072A05DB6A
:1012F00003464146204600F089F90BE1207880063C
:1013000001D5E06900E00620B8F1650F814606D0FE
:10131000B8F1660F18D0B8F1670F70D131E0002036
:10132000B9F1110F009001DB112301E009F1010374
:101330000AAA01A90CA8FFF7E2FEDDE90C7000265D
:1013400009F10105834647E001204B4600904FF02C
:1013500000470AAA01A90CA8FFF7D1FEDDE90DB0EC
:101360000C995D46002610B909F101000D18B9EB82
:10137000050003D4C0F1FF3609F10105A5EB090012
:101380002BE0B9F1010F01DA4FF001090020B9F1AA
:10139000110F0090484601DD112300E003460AAA20
:1013A00001A90CA8FFF7ABFEDDE90C704D46002645
:1013B0008346207800070AD4AB4500DA5D4601A8D1
:1013C000012D04DD411911F8011C302907D04F45CA
:1013D00002DA17F1040F04DA012082460FE06D1ED5
:1013E000EEE7002F02DCED1B3E4403E0781CA84230
:1013F00000DD7D1CB81B00F1010A4FF0004720788A
:10140000000703D4AA4501DB4FF0FF3A0021B7F1F2
:10141000004F0DF143088DF8431024D002202B23F8
:10142000002F01DA7F422D230A21021EA0F10100C4
:1014300000DC5FB197FBF1FC97FBF1F201FB1C7C38
:1014400017460CF1300C08F801CDEEE7A8F10100C9
:1014500003702188090501D5452100E06521A0F12F
:10146000010800F8011C09980FA9A1EB0807FF1D4E
:1014700000B10120411901EBEA70A1693844081A52
:10148000401EA0612078C00602D42046AFF3008041
:10149000099828B1D4E901219047206A401C2062B4
:1014A0002078C00622D52046AFF300801EE0002E33
:1014B00004DBB34502DD01A8805D00E03020D4E903
:1014C00001219047206A401C2062761CAAF101008D
:1014D0005FEA000A0AD100F033F8C0680168405C96
:1014E000D4E901219047206A401C2062281EA5F102
:1014F0000105DCDC07E0D4E9012118F8010B904775
:10150000206A401C2062381EA7F10107F3DC204648
:10151000AFF30080032011B041E60000074B70B527
:101520000D467B4400F05FF80446284600F020F9A1
:1015300010B14FF0FF3070BD204670BD1334000075
:101540000048704750E302200048704730E3022013
:1015500030B5B0F10A024FEA900E71F100034EEA85
:10156000817EB0EB0E0061EB91014FEA101E4EEA56
:10157000017E10EB0E0041EB11114FEA102E4EEAE6
:10158000016E10EB0E0041EB11214FEA104E4EEAB6
:10159000014E10EB0E0041EB1141401841F10001EA
:1015A0004FEAD00040EA41704FEAD10110EB8005CC
:1015B0004FEA810444EA907444EB01046D1944EB52
:1015C0000404521BA3414FF0000348BF0A3200D568
:1015D00030BD401C41F1000130BD000001694A1CD2
:1015E00002610878704700B58FB0CDE90131002164
:1015F000059105497944CDE9031011466846FFF786
:10160000A5FC0FB000BD0000E5FFFFFF2DE9F04194
:101610001F46044603260168072A01F4006004DB24
:1016200008B116A505E016A503E008B115A500E070
:1016300015A521F010002060A069C01EA0610FB1A7
:10164000401EA0612046AFF300804FB1D4E90121D4
:1016500038469047206A401C2062C01C206206E089
:10166000206AFAE7D4E9012115F8010B9047761EAC
:10167000F8D22046AFF30080BDE8F0814E414E0025
:101680006E616E00494E4600696E66002DE9F047B6
:10169000814616468AB0354878440DC88DE80D005D
:1016A00032487844801C03AC0DC884E80D0041F634
:1016B0009B300844372190FBF1F290FBF1F5A5F146
:1016C000800501FB12041B3C02D56442012000E0AE
:1016D0000020DFF898A080460027FA44AAF1BE0A4D
:1016E0000EE0E0070AD03246684607EB47010123C7
:1016F0000AEB810100F037FB8DE8070064107F1CC6
:10170000002CEED1194F7F44AE3F19E0E80715D009
:1017100007EB04100DF1180A90E80E008AE80E009D
:10172000C068F04201D1981908903246012306A9F9
:1017300003A800F018FB03AB83E807006D10641CDE
:10174000002DE3D14FF0010332466946B8F1000F96
:1017500003A802D000F0F2FA01E000F004FBC9E9AE
:101760000001C9F808200AB0BDE8F08778C0000081
:10177000007B00F0800070470048704730E3022093
:101780007546FFF7F9FFAE4605006946534620F05F
:101790000700854618B020B5FEF79CFDBDE8204047
:1017A0004FF000064FF000074FF000084FF0000B1D
:1017B00021F00701AC46ACE8C009ACE8C009ACE8D0
:1017C000C009ACE8C0098D46704710B50446AFF3B8
:1017D00000802046BDE81040FEF767BD4FF0013C99
:1017E00050F8042B51F8043B9A4215D1A2EB0C039C
:1017F000934313EACC130BD150F8042B51F8043B5C
:101800009A4209D1A2EB0C03934313EACC13E7D01D
:101810004FF00000704700BFD01A01BAB1FA81F151
:1018200001F0180122FA01F0CB40C1F12001DBB236
:10183000C0B2C01A2CFA01F3D11A914311EAC311B4
:10184000E6D170475FEA400C08BF91F0000F4FEA05
:101850008C234FEAC12243EA51514FEA1C5018BF72
:1018600000F5F0404FEA300018BF41F000415FEA58
:101870006C5C00F02980BCF1FF3F08BF40F0804065
:101880007047130C06BF12044FF0100C4FF0000C01
:10189000130E04BF12020CF1080C130F04BF120147
:1018A0000CF1040C930F04BF92000CF1020CD30F47
:1018B00004BF52000CF1010C11464FF00002A0F1E0
:1018C0001F00A0EB0C00704711F0004F08BF7047DD
:1018D00031F000413FF4D5AF0B0C06BF09044FF0C7
:1018E000100C4FF0000C0B0E04BF09020CF1080C99
:1018F0000B0F04BF09010CF1040C8B0F04BF89000E
:101900000CF1020CCB0F04BF49000CF1010CCCF11F
:101910002003A0EB0C0022FA03F302FA0CF241EAD6
:10192000030100F10100704720F07F4C80EA0300C2
:1019300023F07F47ACEB070303F57C5300F0004036
:1019400003F1FF032DE980494FEA154B09B44FEA33
:10195000144325EA0B4E24EA03480FF2042606EB53
:10196000132749083E785FEA320203FB0667C7F592
:10197000000707FB06F64FEA54374FEAD64606F152
:10198000020607FB066CCCF1005C4FEA1C472CEA10
:10199000074C07FB06F40CFB06F504EB15464FEA73
:1019A000961634BF00204FF000404FEAD13706FBB7
:1019B00007FC4FEA1C4C0CFB0BF7D21B03FB0CF78C
:1019C00061EB07010CFB0EF7B0EB074072EB17421F
:1019D0000CFB08F734BFA2EB0742B2EB074261EB06
:1019E00017414FEA0C444FEA910706FB07FC4FEA08
:1019F0001C4C0CFB0BF7B0EBC74072EB573203FBF0
:101A00000CF734BFA2EBC742B2EBC74261EB5731D0
:101A10000CFB0EF7B0EBC70072EB57720CFB08F72C
:101A200034BFA2EBC702B2EBC70261EB5771039F51
:101A30004FEA816141EA921104EBCC044FEAD137BD
:101A40004FEA826206FB07FC42EA90124FEA80608E
:101A50004FEA1C4C0CFB0BF7D21B03FB0CF761EBA2
:101A600007010CFB0EF7B0EB074072EB17420CFBC3
:101A700008F734BFA2EB0742B2EB074261EB174114
:101A80004FEA8C554FEA910704EB9C2406FB07FCB8
:101A90004FEA1C4C0CFB0BF7B0EBC74072EB573214
:101AA00003FB0CF734BFA2EBC742B2EBC74261EBBA
:101AB00057310CFB0EF7B0EBC70072EB57720CFB03
:101AC00008F734BFA2EBC702B2EBC70261EB577154
:101AD00015EB4C254FEA816141EA92114FEA82628F
:101AE0004FEAD13742EA901206FB07FC44F10004AA
:101AF0004FEA80604FEA1C4C0CFB0BF7D21B03FB38
:101B00000CF761EB07010CFB0EF7B0EB074072EB33
:101B100017420CFB08F734BFA2EB0742B2EB0742B7
:101B200061EB174115EB1C154FEA813141EA9241F7
:101B30004FEA823242EA90424FEA80304FEA0C7616
:101B400044F1000448EA03434EEA0B484FF0000E0C
:101B5000B2EB080C71EB030724BF624639464EEB2B
:101B60000E0E4FF0000B0018524149414BEB0B0B8E
:101B7000B2EB080C71EB03077BF1000B24BF62464C
:101B800039464EEB0E0E4FF0000B00185241494102
:101B90004BEB0B0BB2EB080C71EB03077BF1000B6B
:101BA00024BF624639464EEB0E0E51EA020718BFBB
:101BB00046F0010616EB0E7655F1000254F10001D5
:101BC00003D5BDE88901BDE80088BDE88901BDE80D
:101BD0000048B619524141EB0101A3F101037047DE
:101BE00080807F7E7D7C7B7A79787776767574735A
:101BF000727171706F6E6E6D6C6C6B6A6A69686819
:101C0000676666656464636362616160605F5F5EAE
:101C10005E5D5D5C5C5B5B5A5A5959585857575624
:101C20005655555554545353525252515150505089
:101C30004F4F4F4E4E4D4D4D4C4C4C4B4B4B4A4ADB
:101C40004A4949494848484747474746464645451F
:101C50004544444444434343434242424241414158
:101C6000002B9C4630D477002BD01CB54FEA3707A9
:101C700003B44FF010004FF01001BAF1000F06D07E
:101C8000BCF1000FDCBF40F0080040F0080103F099
:101C9000C1F80FBCBDE810400BF1010BBBF1010F07
:101CA00008BF5FEA170722BF12F1010211F101011B
:101CB0004FF0004143F1000300F0004043EA000010
:101CC0007047F9D35708D0E746EA064613F1400FAC
:101CD0004FEA16461FDD13F1200FDFBF16430A46F9
:101CE000002120335B42BED0C3F1200746EA0646FE
:101CF00002FA07F74FEA164646EA0706C3F120073D
:101D000022FA03F201FA07F721FA03F14FF0000378
:101D100042EA0702A7E746EA020646EA06464FEA13
:101D2000164646EA0106BCBF46EA0646360C4FF0A8
:101D300000034FF000024FF0000194E72DE9804CC2
:101D40009A46934670B491E8380007C831EA400CCF
:101D500048BF34EA430C03D5FFF7E6FDFFF780FFE9
:101D6000F0BCBDE8008C2DE9804C9A46934670B4D7
:101D700091E8380007C810F0804F08BF13F0804F7B
:101D800003D100F005F8FFF76BFFF0BCBDE8008C55
:101D900020F07F4780EA030023F07F4C07EB0C0321
:101DA000A3F57C5300F00040A3F1FE0392F0000F76
:101DB00000F0B38095F0000F00F077802DE9014925
:101DC0004FEA11404FEA144621EA004800FB06FCA6
:101DD00024EA064708FB06F607FB08F800FB07F7AE
:101DE00018EB06484CEB164C4FEA124B18EB074821
:101DF0004FEA15464CEB174022EA0B4E0BFB06FC54
:101E000025EA06470EFB06F607FB0EFE0BFB07F75F
:101E10001EEB064E4CEB164C4FF000061EEB074E29
:101E20004CEB174B18EB0B0840F1000018EB0E0BB6
:101E300058EB000840F100008F1A4FF000013CBF42
:101E4000C943661B14BFB5EB040C00213CBFC9435A
:101E5000F61B4FEA17444EEA8E0E27EA04454FEA76
:101E60001C4704FB07622CEA074C05FB07F70CFB39
:101E700005F604FB0CFC16EB074642EB174216EB8B
:101E80000C4642EB1C421BEB060658EB020241419A
:101E900046EA9E0601D5BDE80189B619524141EBDB
:101EA0000101A3F10103BDE801894FEA14454FEA9E
:101EB000114724EA054621EA074C05FB07F406FB17
:101EC00007F70CFB06F105FB0CFC11EB074144EB9B
:101ED00017444FEA124711EB0C4144EB1C4422EA31
:101EE000074C05FB07F206FB07F70CFB06F605FBA4
:101EF0000CFC16EB074642EB174216EB0C4642EB86
:101F00001C456A1854F1000148BF7047B619524188
:101F100041EB0101A3F10103704795F0000F37D0A9
:101F20004FEA11424FEA144721EA024624EA074CDD
:101F300002FB07F106FB07F70CFB06F402FB0CFCA7
:101F400014EB074441EB17414FEA154714EB0C44DF
:101F500041EB1C4125EA074C02FB07F506FB07F79E
:101F60000CFB06F602FB0CFC16EB074645EB17458F
:101F700016EB0C4645EB1C42121951F1000148BF0B
:101F80007047B619524141EB0101A3F101037047BB
:101F90004FEA14454FEA114724EA054621EA074C67
:101FA00005FB07F106FB07F70CFB06F24FF00006F6
:101FB00005FB0CFC12EB074241EB174112EB0C4204
:101FC00051EB1C4148BF7047921841EB0101A3F14E
:101FD0000103704710B50146806B026C12F0500F80
:101FE00005D0806BC26C0846BDE810401047016CFC
:101FF00041F40071016401688A6812F0405F17D1F2
:102000008269AAB9CA6A12F4700F02D08A685205AE
:102010000ED44A6822F020024A60016C21F48071DB
:102020000164016CC90403D4016C41F00101016435
:1020300000F098FB10BD10B5806B40210164416C2D
:1020400041F00401416400F08FFB10BD10B5806BBE
:1020500000F089FB10BD00004A4910B5D1F80423F7
:1020600022F44032C1F80423D1F8042343681A4310
:10207000C1F8042301684A6822F480724A6001684A
:102080004A68036942EA03224A6001684A6822F00A
:1020900040724A6001684A6883681A434A6001686E
:1020A0008A6822F400628A6001688A68C3681A43F9
:1020B0008A60816A6FF07062D14201688A6822F09A
:1020C00070628A6001688A680CD0836A1A438A60E9
:1020D00001688A6822F040528A6001688A68C36A8F
:1020E0001A4301E022F040528A6001688A6822F0B7
:1020F00002028A6001688A68836942EA43028A6050
:10210000016A002901684A6815D042F400624A60F9
:1021100001684A6822F460424A6001684B684FF4E3
:102120006044426A94FAA4F4521EB4FA84F4A240C1
:1021300013434B6002E022F400624A600168CA6AFD
:1021400022F47002CA620168CA6A838B0E4C04EBE7
:1021500003531A43CA6201688A6822F400728A60D3
:1021600001688A68036B42EA43228A6001688A68D0
:1021700022F480628A6001688A68406942EA8020AD
:10218000886010BD002001400000F0FFFEE7000065
:1021900031482DE9F04100683049884202D92F4882
:1021A000543804E02E49884203D92C485838006836
:1021B00008E02B4A2A49603AB839904201D9486868
:1021C00000E0086810F0200F40D000F05DF9254DC8
:1021D000254FDFF89880264C2878C0B102F0C6FD64
:1021E00020802878234D244E0028B4F9000015D013
:1021F000B6F90010884219D197ED001A98ED000B3E
:1022000002F032FDB4F9001088420CD10EE097EDD7
:10221000001A98ED000B02F027FDE1E730B1B6F9A6
:102220000010884202D12878401C00E0002028706D
:102230001248B4F90010318090ED000A104802F005
:102240000DFB104880ED000A02F004FCBDE8F041EF
:10225000014800F0F5BB000020E202205864024073
:10226000B860024000000220200002202800022066
:10227000320002200100022030000220180002205B
:102280006020022014000220094808B5016841F4CA
:102290008001016000680022114600F48000009077
:1022A000382000F0BBFEBDE80840382000F0ABBE8F
:1022B0003038024001681823CAB2103AB2FBF3F278
:1022C000054B6FF30901032A9B5CC36500D9091D07
:1022D0008165084670470000504E0008014610B561
:1022E00000208B694FF0C0748A6A53B1B3F5005F68
:1022F00015D072B1012A0CD0022A0AD0032A09D1C2
:1023000004E01AB1012A06D0022A03D1C96AC90120
:1023100000D5012010BDC96AA142FAD010BD002A23
:10232000F7D0012AF2D0022AF3D0032AF3D010BD4D
:1023300010B5114C4FF480610E48206000206060A1
:10234000A060C4E90301490061618900A1614911EC
:10235000E1610902C4E908100321C4E90A102063FD
:10236000204600F041FB204600F03EFC0348846319
:10237000A06310BD1064024020E20220D8E10220D8
:1023800030B50468256825F48025256004686360FD
:102390008368402B036803D099600068C26030BD39
:1023A0009A600068C16030BD7047012000F0F2BC47
:1023B0004FF4005000F0EEBC042000F0EBBC08200D
:1023C00000F0E8BC2A4810B586B0016841F0010170
:1023D0000160016801F001010591016841F004010B
:1023E0000160016801F004010591016841F080017C
:1023F000016000680124694600F0800005901D48D6
:10240000CDE90040022002901B4800F0CFFC6003A1
:1024100000901A486946CDE90104194800F0C6FC4D
:102420000C2000901748694600F0C0FC00220221F1
:10243000062000F0F3FD062000F0E5FD0122022158
:10244000082000F0EBFD082000F0DDFD022209204D
:10245000114600F0E3FD092000F0D5FD0322022122
:10246000282000F0DBFD282000F0CDFD06B010BDD7
:10247000303802400000111000000240000021101E
:1024800000080240001C024070B54D4AB6EE000A3A
:102490002DED028B10885188D38808449188194407
:1024A000484B084400EE900AB8EE601AF5EE000AB8
:1024B00021EE201A83ED001A9FED431AF7EE001A61
:1024C000012071EEC01A040383ED011A02EB4001F2
:1024D00032F810504E8835448E88C98831442944DA
:1024E00002EE101A03EBC001401CB8EE422A51ED77
:1024F000022A80B2A04222EE002A22EE202A01EE19
:10250000A22A81ED002A81ED011ADFD32D492F483F
:10251000FEF7A5FA2E4922462A48FDF7EDFE2D4882
:102520002D49DFED2F0A9FED308A00882D4CB1FB3D
:10253000F0F02A49264D2D4A0988B0FBF1F000EE53
:10254000100A281DB8EE400A20EE200A84ED000A89
:10255000C8EE000ABCEEE00A10EE101AFEF766FBA9
:1025600094ED000A224B281D224AC8EE000ABCEE58
:10257000E00A10EE101AFEF7F3FA1D48D4ED000A37
:1025800090ED000AB8EE400A20EE200ADFED1A0AAC
:1025900084ED000A80EE801AB7EEC10A01F0E4FF74
:1025A000B2EE081B20EE018BB0EE000B01F0DCFF59
:1025B00088EE001B114880ED001BBDEC028B70BD46
:1025C00058000220A0200220000000008C200220E1
:1025D000A0A002200400022000F36F0606000220E3
:1025E00000008039180002200000AF4320000220C4
:1025F0001C000220240002200000DC4328000220EE
:10260000F8B50023009390F83C20012A18D001224D
:1026100080F83C200A6807264E4D0468092A1BD919
:10262000E7680A3A02EB42029640B743E7600A685D
:10263000AA4207D10268D4680E7A44EA066409E027
:102640000220F8BD0A3A8C6802EB4202944002680C
:10265000D6683443D4600EE0276902EB420296400C
:10266000B74327610A788C6802EB42029440026803
:102670001669344314614A681F26072A13D2046876
:10268000676B521E02EB82029640B74367630A886B
:1026900094B20A79521E02EB820294400268566B91
:1026A0003443546327E004680D2A12D2276BD21FEB
:1026B00002EB82029640B74327630A8894B20A79F4
:1026C000D21F02EB820294400268166B34431463FB
:1026D00011E0E76A0D3A02EB82029640B743E762E7
:1026E0000A8894B20A790D3A02EB82029440026899
:1026F000D66A3443D462184C0268A24208D10A68F0
:10270000122A05D1D4F8042342F48002C4F8042329
:102710000268A2421AD10A68AA4201D0112A15D130
:10272000D4F8042342F40002C4F804230968A9423F
:102730000CD10A490A4A0968B1FBF2F101EB8101A7
:10274000490000E0491E00910029FBD180F83C308F
:102750000020F8BD120000100020014034000220CB
:1027600040420F0070477047704770B504004FF04B
:10277000000603D0206C002510B107E0012070BDD9
:102780006564204684F83C5000F01AF8206CC006BE
:1027900010D4206C20F4885040F0020020642046C1
:1027A000FFF75AFC6564206C20F0020040F0010045
:1027B000206400E0012684F83C50304670BD0000E3
:1027C000104800B587B0016841F48071016000686D
:1027D00000F4807005900B481438016841F0010145
:1027E00001600068694600F001000590202000901B
:1027F0000320019000200290034800F0D7FA07B0B0
:1028000000BD0000443802400000024018B500221C
:10281000009290F83C10012907D0012180F83C106B
:1028200001688B68DB0702D011E0022018BD8B68BD
:1028300043F001038B602049204B0968B1FBF3F1A1
:1028400001EB410100E0491E00910029FBD1016824
:102850008B68DB072DD0036C40F20164A34343F483
:10286000807303644B685B0505D5036C23F4005348
:1028700043F480530364036CDB0404D5436C23F0FE
:102880000603436400E0426480F83C206FF02202BB
:102890000A600B49D1F804230068D20601D08842AF
:1028A00007D1816811F0405F03D1816841F0804118
:1028B0008160002018BD00003400022040420F005B
:1028C00000200140F8B500230446009390F83C0036
:1028D000012807D0012084F83C0020688568ED07B6
:1028E00002D011E00220F8BD856845F00105856041
:1028F0002E482F4D0068B0FBF5F000EB400000E0E3
:10290000401E00900028FBD120688568ED074AD062
:10291000256C40F20166B54345F480752564406836
:10292000400505D5206C20F4005040F48050206410
:10293000206CC00404D5606C20F00600606400E0E8
:10294000636484F83C30A36B1A48D863A36B1A48BD
:102950001864A36B1948D8646FF0220023681860CC
:102960002068436843F0806343602068836843F4D1
:102970008073836020681346A56B0A4600F14C0102
:10298000284600F099F90E49D1F80403C0062068E2
:1029900001D0884207D1816811F0405F03D181687E
:1029A00041F0804181600020F8BD00003400022029
:1029B00040420F00D51F00084D20000837200008B6
:1029C0000020014090F83510022903D08021416594
:1029D00001207047052180F835100068016821F05A
:1029E000010101600020704770B5040025D094F803
:1029F0003500022820D02068016821F00101016023
:102A00002068002505602068456020688560206892
:102A1000C560206805612120216848612046FFF7D4
:102A200049FC94F85C203F2191408160656584F801
:102A30003550002084F8345070BD012070BD000076
:102A40002DE9F843044666484FF00008CDF80080B1
:102A50004FF41651A56D0068B0FBF1F72E680822FF
:102A600094F85C0002FA00F1314210D0206801684D
:102A700049070CD5016821F00401016094F85C005D
:102A800002FA00F1A960606D40F00100606594F801
:102A90005C1054488840304208D0216849690906D2
:102AA00004D5A860606D40F0020060654D4894F860
:102AB0005C10C01C8840304208D021680968890732
:102AC00004D5A860606D40F00400606594F85C1067
:102AD00010208840304218D021680968090714D5B1
:102AE000A86020680168490304D50068000308D580
:102AF000A16C07E00168C90503D4016821F0080151
:102B00000160216C09B12046884794F85C102020B0
:102B1000884030424FF0010631D021680968C9066B
:102B20002DD5A86094F8350005282068016806D0E6
:102B3000490347D5006800031DD4616C1CE021F0F7
:102B4000160101602068416921F080014161206C1B
:102B500008B9A06C20B12068016821F0080101606B
:102B600094F85C103F208840A86084F8348084F892
:102B70003560216D1FE0E16B09B120468847606D2B
:102B800000282BD0606DC00714D0052084F83500D4
:102B90002068016821F0010101600098401C00904C
:102BA000B84203D820680068C007F6D184F83480A2
:102BB00084F83560E16C002910D001B02046BDE8F2
:102BC000F04308470168C905D5D4016821F0100118
:102BD000016084F8348084F83560CCE7BDE8F88380
:102BE00034000220010080002DE9F041044600F08D
:102BF000D5F905465CB1002684F83460022084F8DB
:102C000035002068016821F0010101600DE001201C
:102C1000BDE8F08100F0C2F9401B052805D920204D
:102C20006065032084F83500F2E720680068C0077B
:102C3000F0D121680A681F480240D4E90103184313
:102C4000D4E903352B43184363691843A369184338
:102C5000E3691843236A18431043626A042A03D1C4
:102C6000D4E90B231A431043086020684069012708
:102C7000656A20F0070128460D4304280AD1A06A9E
:102C800005432046FFF72AFB20B14020606584F809
:102C90003570BCE7206845612046FFF70BFB94F8D0
:102CA0005C203F2191408160666584F8357000208A
:102CB000AEE700003F8010E02DE9F041866D04464C
:102CC00090F83400002501280DD0012084F834004C
:102CD00094F835700020012F07D0022584F83400C5
:102CE0002846BDE8F0810220FBE7022784F8357012
:102CF00060652046FFF744FB94F85C103F20884055
:102D0000B0602068016841F01601016020684169E7
:102D100041F080014161206C20B12068016841F0E0
:102D2000080101602068016841F001010160D7E7F6
:102D300010B50446322001F0D7FD012C0DD011480A
:102D4000042C0DD0082C0DD04FF400518C4217D11B
:102D50000D48BDE8104000F017B90C480121F8E714
:102D60000421F6E7082100F00FF9002808D10849EE
:102D70000878401CC0B20870062801D900200870ED
:102D800010BD0000001C024000080240000002408C
:102D900000000220044910B50A68024202D008600F
:102DA000FFF7C6FF10BD0000143C01402DE9F84FAD
:102DB000DFF8A09100224FF00F0809F1040A0AF190
:102DC000040B0BF1040E0B68012696403340B3420E
:102DD00071D14C68022C01D0122C11D1D40800EB17
:102DE00084073D6A5407E40E08FA04FC25EA0C0542
:102DF000D1F810C00CFA04FC4CEA050CC7F820C04E
:102E00000768540091F804C00325A5400CF0030C9A
:102E1000AF430CFA04FC4CEA070CC0F800C04F6842
:102E2000012F05D0022F03D0112F01D0122F11D165
:102E30008768D1F80CC0AF430CFA04FC4CEA070CCD
:102E4000C0F808C04768B7430E79C6F3001696402D
:102E50003E434660C668AE438D68A5403543C560B5
:102E60004C68E4006FD53C4C256845F480452560EE
:102E7000246822F0030504F480440094374C2E1992
:102E8000D6F808789407250F08FA05F4A743344CC0
:102E9000A04201D100242EE0324CA04201D10124F5
:102EA00029E0314CA04201D1022424E02F4CA04261
:102EB00002D103241FE046E02D4CA04201D104249E
:102EC00019E02C4CA04201D1052414E02A4CA04268
:102ED00001D106240FE0294CA04201D107240AE0C9
:102EE000274CA04201D1082405E0264CA04201D184
:102EF000092400E00A24AC403C43C6F80848D9F84D
:102F000000404D464E689C43F60300D51C432C60A0
:102F1000DAF8004055464E689C43B60300D51C4382
:102F20002C60DBF800405D464E689C43F60200D5FD
:102F30001C432C60DEF8004075464E689C43B60288
:102F400000D51C432C60521C102AFFF43CAFBDE896
:102F5000F88F0000003C014044380240003001403E
:102F6000000002400004024000080240000C024041
:102F7000001002400014024000180240001C0240F1
:102F800000200240002402400069084000D00120D7
:102F900070470AB1816170470904FBE70148006886
:102FA000704700004400022002480168491C01608B
:102FB0007047000044000220074810B5016841F442
:102FC00000710160052000F049F80F2000F006F8BC
:102FD00000F018F8002010BD003C024010B5044677
:102FE00007484FF47A710068B0FBF1F000F032FB53
:102FF00000222146501E00F011F8002010BD0000F4
:10300000340002207047012100F01F029140400966
:10301000800000F1E020C0F8001170470E4BF0B4C2
:103020001B68C3F30223C3F10704042C00D9042452
:103030001D1D072D01D2002300E0DB1E012606FA2C
:1030400004F56D1E0D409D409E40761E164045EADB
:103050000601F0BC00F0F0BD0CED00E0064A00F007
:10306000070110684FF6FF03184040EA01200349AA
:1030700008431060704700000CED00E00000FA0506
:103080001848F8B5016841F0805101600068164D9C
:1030900000F080500090286840F480302860FFF7EE
:1030A0007DFF4FF47A76044604E0FFF777FF001BBC
:1030B000B0420FD86868C003F7D5286840F40030E4
:1030C0002860FFF76BFF044606E0FFF767FF001B71
:1030D000B04201D90320F8BD68688003F5D500200F
:1030E000F8BD000040380240007000402DE9F04774
:1030F000DFF8448104460E46D8F8000000F00F00C7
:10310000B0420CD2D8F8001021F00F013143C8F8BA
:103110000010D8F8000000F00F00B04262D1207813
:10312000464F800705D53868A16820F0F0000843B5
:1031300038602078C00744D04049606808390128C9
:1031400016D00968022816D0890700294ADA39689A
:1031500021F0030101433960FFF720FF0546606855
:1031600041F2883101280ED00228894617D024E088
:1031700009688903E9E78901E7E7FFF70FFF411BCA
:10318000494501D916E089463868C0F38100012815
:10319000F3D116E0FFF702FF411B49450AD8386812
:1031A000C0F381000228F5D10BE0FFF7F7FE411BC9
:1031B000494502D90320BDE8F087386810F00C0FAC
:1031C000F3D1D8F80010404601F00F01B1420BD9FD
:1031D000016821F00F0131430160006800F00F0029
:1031E000B04201D00120E6E72078400705D53868D5
:1031F000E16820F4E050084338602078000706D5E5
:103200003868216920F4604040EAC100386000F06D
:103210004BF83968F02292FAA2F201F0F001B2FA0A
:1032200082F2D140064A515CC840064908600F202E
:10323000FFF7D4FE0020BEE7003C02400838024001
:10324000384E00083400022008480949006809681F
:103250004FF4E05292FAA2F201F4E051B2FA82F293
:10326000D140044A515CC84070470000340002203D
:1032700008380240484E00080848094900680968B3
:103280004FF4604292FAA2F201F46041B2FA82F283
:10329000D140044A515CC84070470000340002200D
:1032A00008380240484E0008194830B5006810F050
:1032B0000C01184812D0184C04290ED008290DD141
:1032C000134A121F1168136801F03F015D0247F6AF
:1032D000C07304D5B4FBF1F003E0204630BDB0FB71
:1032E000F1F01168194093FAA3F3B3FA83F3D940CC
:1032F000484311684FF4403292FAA2F201F440318F
:10330000B2FA82F2D140491C4900B0FBF1F030BD65
:10331000083802400024F40040787D012DE9F84F80
:10332000DFF8108304460078A8F10409A9F1040528
:10333000C0074AD0D8F800104046C1F381010129E6
:1033400008D00068C0F3810002280AD1D9F8000033
:10335000400206D52868800337D5606800286ED003
:1033600033E06068B0F5803F0BD010B1B0F5A02F0E
:1033700011D0286820F480302860286820F480204C
:1033800002E0286840F480302860606888B1FFF768
:1033900005FE064609E0286840F480202860F0E732
:1033A000FFF7FCFD801B642872D828688003F7D5DE
:1033B0000BE0FFF7F3FD064604E0FFF7EFFD801B8F
:1033C0006428F1D828688003F7D42078800746D590
:1033D000D8F8001040464FF0F80711F00C0F08D055
:1033E0000068C0F3810002280AD1D9F80000400229
:1033F00006D42868800716D5E06801281FD112E09E
:10340000E068002828681BD040F001002860FFF722
:10341000C5FD064604E0FFF7C1FD801B0228C3D8A6
:1034200028688007F7D5286897FAA7F22169B2FAC9
:1034300082F220F0F8009140084328600FE0F7E0A6
:1034400020F001002860FFF7A9FD064604E0FFF721
:10345000A5FD801B02281BD828688007F7D4207898
:10346000000725D5734F60696C370028386810D085
:1034700040F001003860FFF791FD064604E0FFF7D9
:103480008DFD801B022803D838688007F7D50FE030
:103490008AE020F001003860FFF780FD064604E076
:1034A000FFF77CFD801B02287ED838688007F7D4A0
:1034B0002078400750D55F483830016841F080518E
:1034C000016000685C4F00F080500090386840F464
:1034D00080703860FFF762FD064604E0FFF75EFD8E
:1034E000801B642860D83868C005F7D5514FA068A4
:1034F000683701280AD008B1052813D0386820F0B1
:1035000001003860386820F0040002E0386840F0BC
:1035100001003860A06841F2883A88B1FFF73EFDAB
:10352000064609E0386840F004003860EEE7FFF72F
:1035300035FD811B514573D838688007F7D50BE0FE
:10354000FFF72CFD064604E0FFF728FD811B5145DF
:1035500066D838688007F7D4A06930B3D8F800106F
:10356000C1F38101022963D00228286820F080700D
:10357000286003D0FFF712FD044654E0FFF70EFD6C
:10358000064604E0FFF70AFD801B022848D8286899
:103590008001F7D447F6C072D4E9070192FAA2F28B
:1035A0000843B2FA82F201E03AE03FE0616A4FF08C
:1035B000FF339140A26A03EB52024FF4403393FA77
:1035C000A3F3B3FA83F39A4011434FF070620843B8
:1035D000E16A92FAA2F2B2FA82F291404FF0E0422E
:1035E0000843216B92FAA2F2B2FA82F291400843A8
:1035F000C9F80000286840F080702860FFF7CEFC12
:10360000044604E0FFF7CAFC001B022808D828681B
:103610008001F7D50AE0FFF7C1FC001B022802D9A0
:103620000320BDE8F88F28688001F4D40020F8E773
:103630000120F6E708380240007000404FF0E0211A
:103640000428086903D020F004000861704740F0A6
:103650000400FAE7401EB0F1807F10B501D30120CD
:1036600010BD4FF0E02460610F21601700F0E4FA14
:103670000020A06107202061002010BD70B5044625
:1036800090F838000D4601280ED0012684F83860E5
:10369000022084F839000C2A45D007DC5AB1042AEC
:1036A0001BD0082A78D12CE0022070BD102A4ED001
:1036B000142A71D15DE0206800F0CEFB206881699A
:1036C00041F0080181612068816921F00401816174
:1036D000206881692A69114311E0206800F0ECFB41
:1036E0002068816941F4006181612068816921F469
:1036F00080618161206881692A6941EA02218161D2
:103700004AE0206800F00EFC2068C16941F0080121
:10371000C1612068C16921F00401C1612068C169EB
:103720002A69114311E0206800F030FC2068C1696B
:1037300041F40061C1612068C16921F48061C16107
:103740002068C1692A6941EA0221C16124E0206838
:1037500000F048FC2068416D41F008014165206897
:10376000416D21F0040141652068416D2A691143D2
:1037700011E0206800F05EFC2068416D41F40061BA
:1037800041652068416D21F4806141652068416D8B
:103790002A6941EA0221416584F83960002084F8F1
:1037A000380070BD10B5040003D094F8390010B192
:1037B00007E0012010BD002084F83800204600F00A
:1037C0000DF8022084F839002068211D00F0D8FA95
:1037D000012084F83900002010BD00001948F0B520
:1037E000016887B041F002010160016801F0020147
:1037F0000591016841F004010160006800F00400D7
:10380000059010481038016841F00201016000681D
:1038100001A90224009401250B4F032600F00200A9
:1038200081E87000CDE9044069463846FFF7BEFAEA
:10383000200269468DE8710038460494FFF7B6FA15
:1038400007B0F0BD403802400004024010B501222C
:103850000446006800F0F4FA08482168814202D06A
:103860000748814203D1486C40F400404864206816
:10387000016841F001010160002010BD000001401D
:1038800000040140704790F8691090F86A000843FE
:103890007047000070B501680446C8690A688B6803
:1038A00010F00F0F5CD040F201152B426BD0C50712
:1038B00007D0D50505D501250D62E16E41F0010166
:1038C000E166810708D5D90706D02568022129625B
:1038D000E16E41F00401E166410708D5D90706D041
:1038E000256804212962E16E41F00201E1660107C9
:1038F0000CD502F0200103F00103194306D0236820
:1039000008211962E16E41F00801E166E16E0029CB
:1039100032D0800604D5900602D5204600F05EFC29
:10392000E06E000703D420688068400625D5204655
:1039300000F046FC2068816849061AD5816821F0AC
:1039400040018160606EA0B12F490165606EFFF794
:1039500039F8002810D0606E016DBDE8704008474E
:10396000830610D593060ED52046BDE8704000F0C2
:1039700035BC2046FFF786FF70BD2046FFF782FF6B
:103980000020E06670BD03062ED513062CD594F8F2
:1039900069002128F6D1B4F8520020B1A068B0F532
:1039A000805F0AD00BE0086820F080000860206883
:1039B000016841F04001016070BD206958B1E06CC0
:1039C000411CE164216800788862B4F85200401E0E
:1039D000A4F8520070BDE06C0088C0F30800886253
:1039E000E06C801CE064F0E74006F3D55006F1D5AA
:1039F0000A68204622F040020A60202184F86910FB
:103A000000F0F0F870BD0000AD41000810B50400F2
:103A100003D094F8690010B107E0012010BD002028
:103A200084F86800204600F027F8242084F8690014
:103A30002068016821F001010160204600F00AFCC5
:103A40000128EBD0606A10B1204600F01DFB206811
:103A5000416821F4904141602068816821F02A0189
:103A600081602068016841F0010101602046BDE8E5
:103A7000104000F06DBB000010B5006886B01A4918
:103A800088422FD11948016841F0010101600068A6
:103A900000F00100059015481430016841F0100154
:103AA000016000680121124C00F0100005904FF4F5
:103AB000007000900220CDE90101039007206946C3
:103AC00004902046FFF772F92115204600916946BF
:103AD000FFF76CF92520FFF796FA032225201146FF
:103AE000FFF79CFA06B010BD0010014030380240CC
:103AF0000000024090F86A30202B44D1B9B1B2B135
:103B000090F86830012B3ED0012380F86830416581
:103B1000A0F85820A0F85A20FF228168B1F5805FF4
:103B200007D07F2351B1B1F1805F0CD010E00120AC
:103B30007047016921B940F2FF1107E00169F9B945
:103B4000A0F85C2004E00169D1B13F21A0F85C102D
:103B50000021C166222280F86A2080F8681001687E
:103B60000A6842F480720A6001688A6842F00102C1
:103B70008A600068016841F0200101600020704700
:103B8000A0F85C30E4E702207047000030B5006820
:103B9000114988420CD1114A5088010408D41146B9
:103BA0004FF000034404097806D50A2901D0538058
:103BB00030BD40F400400DE00D2909D0084DC0F3A0
:103BC0000D04401C80B2C72829555080EFD830BD65
:103BD00040F48040508030BD001001403C00022085
:103BE000A0E002207047FEE77FB5114800240F498E
:103BF000012501604FF48031C0E90114C4604FF029
:103C0000C06104614461C0E906450462C0E909413C
:103C10002907C0E90B15FEF7A8FD05206946CDE987
:103C2000000503480294FEF7EBFC7FBD0020014035
:103C3000D8E10220FEE770470907090E002806DADE
:103C400000F00F0000F1E02080F8141D704700F133
:103C5000E02080F8001470477047704730B51E4C64
:103C600093B0256845F080552560246804F08054A1
:103C700012941A4C256845F44045256024680DF1DE
:103C8000240C04F44044129401240094240401946C
:103C9000022406948CE80D0065056846CDE90751BD
:103CA000FFF73CFB00B1FEE7FFF7EAF900B1FEE7E2
:103CB0000F20CDE90D0400200F904FF4A05010907C
:103CC0004FF48050119007210DA8FFF70FFA00283C
:103CD00000D0FEE713B030BD403802400070004015
:103CE000FFF762B91048016841F4700101600F48A4
:103CF000016841F0010101600C4A002108321160A5
:103D000002680B4B1A400260031D0A4A1A600268DF
:103D100022F48022026005480C30016058060249F6
:103D2000803908607047000088ED00E000380240EC
:103D3000FFFFF6FE10300024104A10B504460E486E
:103D4000C2E900010020C2E9020410611046FFF739
:103D500029FD0A4960200C223C3108606008486057
:103D6000022088600548FFF789FCBDE81040034841
:103D70000C21FFF76BBD00000004004080E2022030
:103D8000F0B502684FF0804E224D234E234FA842DB
:103D9000DFF88CC0234B09D0704507D0B04205D066
:103DA000B84203D0604501D0984203D122F070049C
:103DB0004A682243A8421BD0704519D0B04217D0A0
:103DC000B84215D0604513D0984211D0164CA0428D
:103DD0000ED0164CA0420BD0154CA04208D0154C6A
:103DE000A04205D0144CA04202D0144CA04203D1F2
:103DF00022F44074CA68224302608A68C2620A6878
:103E00008262A84201D0984201D10969016301216F
:103E10004161F0BD00000140000400400008004086
:103E2000000C0040000401400040014000440140FB
:103E30000048014000180040001C004000200040E5
:103E4000012310B5046A8B409C430462036A8A40D4
:103E50001343036210BD000030B5026A22F0010274
:103E60000262056A4268836925F002050F4C23400F
:103E70000C6823F003031C438B682B430C4DA842B2
:103E800002D00C4DA8420BD123F00805CB6822F4D8
:103E900040722B434D6923F0040315438A692A437A
:103EA0004260846149684163036230BD8FFFFEFF59
:103EB000000001400004014030B5026A22F0100207
:103EC0000262046A42688369134D2B400D6823F433
:103ED000407343EA052524F020038C6843EA041369
:103EE0000E4CA04202D00E4CA0420ED1CC6823F062
:103EF000800322F4406243EA04134C6923F0400338
:103F000042EA84028C6942EA84024260856149681F
:103F10008163036230BD0000FF8FFFFE000001409F
:103F20000004014030B5026A22F480720262056A20
:103F30004268C369124C23400C6823F003031C43FE
:103F400025F400738D6843EA05230E4DA84202D084
:103F50000D4DA8420ED1CD6823F4006322F44052E7
:103F600043EA05234D6923F4806342EA05128D6913
:103F700042EA05124260C4614968C163036230BD10
:103F80008FFFFEFF000001400004014030B5026ACF
:103F900022F480520262046A4268C36924F4005425
:103FA0000D4D2B400D6823F4407343EA05238D68C3
:103FB00044EA0534094DA84202D0094DA84204D173
:103FC0004D6922F4804242EA85124260C361496829
:103FD0000164046230BD0000FF8FFFFE000001405D
:103FE0000004014030B5026A22F480320262056AA0
:103FF0004268436D0C4C23400C681C4325F400338D
:104000000D8943EA0543094DA84202D0084DA84254
:1040100004D14D6922F4803242EA052242604465AF
:1040200049688165036230BD8FFFFEFF00000140DB
:104030000004014030B5026A22F480120262056A6F
:104040004268436D0D4C23400C6843EA042425F478
:1040500000130D8943EA0553094DA84202D0094DCA
:10406000A84204D14D6922F4802242EA85224260AE
:1040700044654968C165036230BD0000FF8FFFFEE3
:10408000000001400004014090F82410C90706D048
:1040900001684A68836A22F400321A434A6090F841
:1040A0002410890706D501684A68C36A22F4803261
:1040B0001A434A6090F82410490706D501684A68F7
:1040C000036B22F480221A434A6090F824100907F7
:1040D00006D501684A68436B22F400421A434A60DD
:1040E00090F82410C90606D501688A68836B22F40B
:1040F00080521A438A6090F82410890606D5016818
:104100008A68C36B22F400521A438A6090F8241024
:10411000490611D501684A68036C22F480121A43DB
:104120004A60016CB1F5801F06D101684A68436C92
:1041300022F4C0021A434A6090F82410090606D5FA
:1041400001684A68806C22F4002202434A6070478A
:10415000F8B500250446C566FEF720FF074620682F
:1041600000686FF07E46000708D500223B464FF4FA
:1041700000112046009600F089F960B920680068B7
:1041800040070AD500223B464FF4800120460096A6
:1041900000F07CF908B10320F8BD202084F8690004
:1041A00084F86A00002084F86850F8BD10B5806B70
:1041B0000021A0F85A10A0F85210FFF763FB10BDC1
:1041C00001680A6822F490720A6001688A6822F025
:1041D00001028A60202180F86A10704710B5B0F89B
:1041E0005C2090F86A300168222B05D0886940F085
:1041F00008008861022010BD8368B3F5805F01D19B
:10420000036973B14B6A416D13404A1C42650B70E0
:10421000B0F85A10491E0904090CA0F85A1008D029
:1042200016E0436D496A11401980416D891C416552
:10423000EEE701680A6822F490720A6001688A68F1
:1042400022F001028A60202180F86A10FFF79EFCAC
:10425000002010BD2DE9F04104468368006910215B
:104260000022E66903436069154630430343206832
:1042700006687A4F3E401E43066020684368E66841
:1042800023F4405333434360A369206A0343206807
:10429000866826F430661E438660714FCE02206821
:1042A000704BB8420AD11B6813F0030352D0012BA4
:1042B0007AD0022B76D0032B79D177E06A4FB842BF
:1042C0000AD11B6813F00C036AD0042B6CD0082BA6
:1042D00068D00C2B6BD169E0644FB8420AD11B68DF
:1042E00013F030035CD0102B5ED0202B5AD0302B33
:1042F0005DD15BE05E4FB8420AD11B6813F0C0038A
:104300004ED0402B50D0802B4CD0C02B4FD14DE005
:10431000584FB8420DD11B6813F4407340D0B3F529
:10432000807F41D0B3F5007F3CD0B3F5407F3ED1D4
:104330003CE0514FB8420FD11B6813F4406309D0E1
:10434000B3F5806F30D0B3F5006F2BD0B3F5406F6D
:104350002DD12BE001212AE0484FB8420DD11B6836
:1043600013F440531CD0B3F5805F1DD0B3F5005F4C
:1043700018D0B3F5405F1AD118E0414FB84216D1BA
:104380001B6813F440430BD0B3F5804F0CD0B342FD
:1043900008D0B3F5404F0AD108E005E002E0FFE79E
:1043A000002104E0022102E0042100E00821E36989
:1043B000B34226D109291DD2DFE801F00508121CFD
:1043C000151C1C1C1800FEF73FFF01E0FEF754FF10
:1043D0004100606801EB5001B1FBF0F082B20AE0ED
:1043E00028496068F6E7FEF75FFFF1E760684FF481
:1043F0008031EFE7012522F00F00C2F342010843AC
:104400001CE0092925D2DFE801F005080B2410245F
:1044100024241C00FEF718FF09E0FEF72DFF06E03C
:104420006168194A02EB51020EE0FEF73DFF0146BA
:10443000606801EB5001B1FBF0F080B22168C86008
:1044400008E0616806EB5102B2FBF1F189B2C1608C
:1044500000E001252846BDE8F0810000F369FFEF88
:1044600000100140903802400044004000480040E5
:10447000004C004000500040001401400078004013
:10448000007C00400048E8010024F4002DE9F041E0
:104490001E46174688460446069D1CE0681C1AD036
:1044A00025B1FEF77BFD801BA84214D3206801686C
:1044B00021F4D07101602068816821F001018160E0
:1044C000202084F8690084F86A00002084F86800DD
:1044D0000320BDE8F0812068C16938EA010004D0FA
:1044E0000020B842DAD00020F3E70120F9E700000D
:1044F00070B50D4D00240D48FFF7CCF902E0641CA7
:10450000AC4204D80948FFF7BEF92028F7D10024AF
:1045100002E0641CAC4206D8054901220348FFF7BB
:10452000E9FA0028F5D170BDFFFF010068E1022023
:104530003C000220FEE703B401984100009850EAD5
:10454000C12018BF04204A0D18BF40F0010040F2FE
:10455000FF72B2EB515F08BF40F00200012808BFB4
:10456000052002B07047000070B5DFF8DCC1002202
:104570002DED020B2DED108BDDE91010604505DAF5
:1045800020F00043634501D809D141B19DED100BE6
:10459000BDEC108B02B0BDE8704000F04DB9B0F535
:1045A000801F24DA19430BD0002814DA0120FCF70D
:1045B00046FDBDEC108B02B0BDE8704000F040B984
:1045C0000220FCF73CFD00F027F9B1EE400BBDECFA
:1045D000108B02B070BD9DED100B6FF035029FED9A
:1045E0005C1B20EE010B10EE900A8DED100B02EB20
:1045F0002051A1F2FF325849C0F31300014401F4E5
:10460000801181F07F6383F04053034311939DED4C
:10461000100B02EB21549FED521B811CC1F31301BF
:1046200030EE418B9FED50BB9FED51CB032931D232
:104630005148784490ED000BB4EE408BF1EE10FA47
:104640000ED1002C02BFBDEC108B02B070BD00EE8D
:10465000104AB8EEC01B21EE0B0B01EE0C0BB6E7B7
:1046600028EE081B9FED462B9FED470B002C08EE14
:10467000420B21EE000B08BF38EE400BA7D001EE35
:10468000104AB8EEC11B01EE4C0B30EE480B11EE98
:104690000B0B9CE79FED3E0B3F49C0F1510638EEF6
:1046A000000B45183D4806F5D726032188EE009BF0
:1046B00000EE104AB8EEC0AB29EE09DB2DEE0DEB93
:1046C000B0EE4E0B784400F06DF820EE0EFB34484F
:1046D000B0EE4E0B0421784400F064F820EE0D0B90
:1046E00045EA0600002830EE0F1B1ADD002C9FED76
:1046F000260B28EE000B20EE080B30EE011B04BF4A
:1047000009EE410B38EE400B3FF461AF21EE091B7F
:104710000AEE0C1B30EE410B30EE480B1AEE0B0B81
:1047200055E754B138EE410B20EE090B0AEE4C0B65
:1047300030EE480B1AEE0B0B49E738EE411BB0EE9A
:10474000480B09EE410B42E70000F07F000000003B
:104750000000000000005043645F090000000000FA
:10476000000000000000F03F0000E0FE422EE63FA7
:10477000763C7935EF39EA3D5A90000000000000A0
:10478000555555555555D53F000000000000E03FF8
:10479000000000000000004086EBF9FF908F000051
:1047A000968F0000491E00EBC102B0EE401B92ED57
:1047B000000B31F006020DD0491E00EBC102B0EE35
:1047C000403B92ED002B31F00602B0EE420B03EEBF
:1047D000010BF1D1022914D004290AD0062918BFEF
:1047E000704790ED0A2B00EE012B90ED080B02EEC6
:1047F000010B90ED062B00EE012B90ED040B02EE69
:10480000010B90ED022B00EE012B90ED000B02EE60
:10481000010B7047000000009FED031B9FED042B70
:1048200081EE020B70470000000000000000F03F26
:10483000000000000000000030EE000B7047000098
:104840009FED031B81EE010B70470000000000008C
:10485000000000000000000070470000F0EE400A79
:104860009FED150A932900B51CD005DC91B15229A2
:104870001ED06E290ED118E0C52910D0F72905D019
:10488000B1F5A57F06D19FED0D0A01E09FED0C0A61
:1048900030EE600A00F05AF8B1EE400A00BD9FED1C
:1048A000090AF5E79FED080AF2E79FED080AEFE72E
:1048B0009FED070AECE70000000000000000A543A0
:1048C0000000774300004543000013430000DC4232
:1048D0000000A44210B504460420FEF7AFFE0148D4
:1048E000046010BD3800022070B5002405464FF466
:1048F0007A7603E0304600F005F8641CAC42F9D348
:1049000070BD000070B54FF0E02500216C69094AC8
:10491000AB6912685043AA699A42FCD002D2A3EB59
:10492000020302E0A4EB0206334419441346814219
:10493000F1D370BD380002200349CA695206FCD584
:10494000C2B28A62704700000010014080ED030A85
:10495000D0ED040A70EE600AC0ED050A90ED071A6A
:1049600030EEC11A80ED061A80ED040AC0ED070A88
:10497000D0ED001A61EEA00AD0ED011A41EE800AD6
:1049800090ED020A40EE010AC0ED080AC0ED090AE6
:10499000B0EE600A70470000FEF70EFB092302220A
:1049A00019214FF4D870FFF759F9D820FFF792FF7B
:1049B0004FF4E13000F0F6F900F0FCF8FDF702FDED
:1049C000FDF762FC144C6088401E81B22088401EB6
:1049D00080B2FFF7B1F9FDF7ABFCFFF705F9241D35
:1049E0000E4894EC030A241F00F01EF80B48012324
:1049F000002219032C30FCF751F80948FDF706FF97
:104A0000084941F203020648FDF75CFF012094EDDE
:104A1000040A00F001F9F9E70400022060200220F6
:104A2000D8E102205800022080EC030A9FED080A1A
:104A300080ED030A80ED040A80ED050A80ED060A88
:104A400080ED070A80ED080A80ED090A7047000032
:104A50000000000010B51F481F4C0178002914D039
:104A60001EA0FCF767FA20780F2802D322A0FCF7DB
:104A700061FA2E4890ED000ABDE810402CA0B7EE78
:104A8000C00A53EC102BFCF755BA2FA0FCF752FAD2
:104A90002078E0B13148B0F90000B0F5A57F0CD026
:104AA000F7280CD0C5280CD093280CD06E280CD039
:104AB00006212BA0FCF73EFADBE70121F9E70221F2
:104AC000F7E70321F5E70421F3E70521F1E72AA041
:104AD000CDE700000000022001000220B5B1C7B000
:104AE000C4A3CABDCEAAA3BACAD6B6AF20B5F7250D
:104AF00069CFD20D0A000000B6E0B4CEB5F7D5FB01
:104B0000C8D4CEB4B4EFB5BDC4BFB1EABFD5CFD21F
:104B1000D2F4A3ACC7EBBCECB2E9C9E8B6A8CAC7EB
:104B2000B7F1D5FDC8B70D0A00000000140002203F
:104B3000D0E8D2AAB5F7D5FBB5C4BDC7B6C8CEAAD2
:104B400025660D0A00000000B5B1C7B0C4A3CABDF8
:104B5000CEAAA3BAD7D4B6AF2000000032000220FC
:104B6000CAB6B1F0B3F6B5C4C7D9CFD2CEAA2569BB
:104B7000CFD20D0A000000000D0A00002DE9F0411F
:104B80000B4D00240F2788460646305D27EA0001BA
:104B900040EA0140000128604046FFF7A5FE641C82
:104BA000E4B2082CF1D300202860BDE8F0810000B9
:104BB00018040240164810B586B0016841F00201A1
:104BC000016000686946134C00F002000590F02077
:104BD0000090012001900290032003902046FEF7F0
:104BE000E5F8002220461021FEF7D3F900222046E6
:104BF0002021FEF7CEF9002220464021FEF7C9F918
:104C0000002220468021FEF7C4F906B010BD000046
:104C10003038024000040240B5EEC00A70B5F1EE33
:104C200010FA064603D20D4DB1EE400A01E00B4DDD
:104C30000835DFED0B0A20EE200ADFED0A0A80EED0
:104C4000201ABDEEC10A10EE104A04E03146284693
:104C5000FFF794FF641E002CF8DC70BD48000220B2
:104C6000000000440000B44311EE100A32498842AB
:104C700060DDB0EE0C1BB4EEC10BF1EE10FA09DBF7
:104C8000B1EE0A1BB4EEC10BF1EE10FA02D84FF4EC
:104C9000A5707047B2EE011BB4EEC10BF1EE10FA35
:104CA00008DBB2EE071BB4EEC10BF1EE10FA01D82F
:104CB000F7207047B2EE091BB4EEC10BF1EE10FA0B
:104CC00008DBB2EE0F1BB4EEC10BF1EE10FA01D807
:104CD000C52070479FED191BB4EEC10BF1EE10FA21
:104CE00008DB9FED181BB4EEC10BF1EE10FA01D8F2
:104CF000932070479FED151BB4EEC10BF1EE10FA37
:104D000008DB9FED141BB4EEC10BF1EE10FA01D8D5
:104D10006E2070479FED111BB4EEC10BF1EE10FA3F
:104D200008DB9FED101BB4EEC10BF1EE10FA01D8B9
:104D3000522070470020704700009643000000009A
:104D4000008031400000000000803440000000007E
:104D50000080364000000000008039400000000064
:104D600000803B400000000000803E4001280CD045
:104D700002280DD003280DD004280DD005280DD011
:104D800006280DD04FF0FF3070474FF4A5707047E4
:104D9000F7207047C5207047932070476E207047FA
:104DA000522070470B490A4A10B5C1E90020002083
:104DB0008860C860086188610C2048610846FEF779
:104DC00025FEBDE81040044901220248FEF792BECC
:104DD0000010014068E102203C00022010B50029CB
:104DE0000AD00878002807D005487844FCF7F6FC7C
:104DF000002801D0002010BD0248784410BD0000FA
:104E0000628900005A8900004FF00000E1EE100AAC
:104E100070470000064A21EA020120EA0202F1EE90
:104E2000100A20EA020282EA0102E1EE102A70472B
:104E300060603FF6FCF73BBA000000000000000095
:104E40000102030406070809000000000102030430
:104E500000061016000610160004000200060001ED
:104E600000050003000780008004800280068001A6
:104E70008005800380074000400440024006400156
:104E8000400540034007C000C004C002C006C00186
:104E9000C005C003C0072000200420022006200116
:104EA000200520032007A000A004A002A006A00166
:104EB000A005A003A0076000600460026006600116
:104EC000600560036007E000E004E002E006E00146
:104ED000E005E003E00710001004100210061001C6
:104EE00010051003100790009004900290069001A6
:104EF0009005900390075000500450025006500156
:104F0000500550035007D000D004D002D006D00185
:104F1000D005D003D0073000300430023006300115
:104F2000300530033007B000B004B002B006B00165
:104F3000B005B003B0077000700470027006700115
:104F4000700570037007F000F004F002F006F00145
:104F5000F005F003F007080008040802080608013D
:104F60000805080308078800880488028806880165
:104F70008805880388074800480448024806480115
:104F8000480548034807C800C804C802C806C80145
:104F9000C805C803C80728002804280228062801D5
:104FA000280528032807A800A804A802A806A80125
:104FB000A805A803A80768006804680268066801D5
:104FC000680568036807E800E804E802E806E80105
:104FD000E805E803E8071800180418021806180185
:104FE0001805180318079800980498029806980165
:104FF0009805980398075800580458025806580115
:10500000580558035807D800D804D802D806D80144
:10501000D805D803D80738003804380238063801D4
:10502000380538033807B800B804B802B806B80124
:10503000B805B803B80778007804780278067801D4
:10504000780578037807F800F804F802F806F80104
:10505000F805F803F8070400040404020406040138
:105060000405040304078400840484028406840184
:105070008405840384074400440444024406440134
:10508000440544034407C400C404C402C406C40164
:10509000C405C403C40724002404240224062401F4
:1050A000240524032407A400A404A402A406A40144
:1050B000A405A403A40764006404640264066401F4
:1050C000640564036407E400E404E402E406E40124
:1050D000E405E403E40714001404140214061401A4
:1050E0001405140314079400940494029406940184
:1050F0009405940394075400540454025406540134
:10510000540554035407D400D404D402D406D40163
:10511000D405D403D40734003404340234063401F3
:10512000340534033407B400B404B402B406B40143
:10513000B405B403B40774007404740274067401F3
:10514000740574037407F400F404F402F406F40123
:10515000F405F403F4070C000C040C020C060C011B
:105160000C050C030C078C008C048C028C068C0143
:105170008C058C038C074C004C044C024C064C01F3
:105180004C054C034C07CC00CC04CC02CC06CC0123
:10519000CC05CC03CC072C002C042C022C062C01B3
:1051A0002C052C032C07AC00AC04AC02AC06AC0103
:1051B000AC05AC03AC076C006C046C026C066C01B3
:1051C0006C056C036C07EC00EC04EC02EC06EC01E3
:1051D000EC05EC03EC071C001C041C021C061C0163
:1051E0001C051C031C079C009C049C029C069C0143
:1051F0009C059C039C075C005C045C025C065C01F3
:105200005C055C035C07DC00DC04DC02DC06DC0122
:10521000DC05DC03DC073C003C043C023C063C01B2
:105220003C053C033C07BC00BC04BC02BC06BC0102
:10523000BC05BC03BC077C007C047C027C067C01B2
:105240007C057C037C07FC00FC04FC02FC06FC01E2
:10525000FC05FC03FC070200020402020206020134
:105260000205020302078200820482028206820192
:105270008205820382074200420442024206420142
:10528000420542034207C200C204C202C206C20172
:10529000C205C203C2072200220422022206220102
:1052A000220522032207A200A204A202A206A20152
:1052B000A205A203A2076200620462026206620102
:1052C000620562036207E200E204E202E206E20132
:1052D000E205E203E20712001204120212061201B2
:1052E0001205120312079200920492029206920192
:1052F0009205920392075200520452025206520142
:10530000520552035207D200D204D202D206D20171
:10531000D205D203D2073200320432023206320101
:10532000320532033207B200B204B202B206B20151
:10533000B205B203B2077200720472027206720101
:10534000720572037207F200F204F202F206F20131
:10535000F205F203F2070A000A040A020A060A0129
:105360000A050A030A078A008A048A028A068A0151
:105370008A058A038A074A004A044A024A064A0101
:105380004A054A034A07CA00CA04CA02CA06CA0131
:10539000CA05CA03CA072A002A042A022A062A01C1
:1053A0002A052A032A07AA00AA04AA02AA06AA0111
:1053B000AA05AA03AA076A006A046A026A066A01C1
:1053C0006A056A036A07EA00EA04EA02EA06EA01F1
:1053D000EA05EA03EA071A001A041A021A061A0171
:1053E0001A051A031A079A009A049A029A069A0151
:1053F0009A059A039A075A005A045A025A065A0101
:105400005A055A035A07DA00DA04DA02DA06DA0130
:10541000DA05DA03DA073A003A043A023A063A01C0
:105420003A053A033A07BA00BA04BA02BA06BA0110
:10543000BA05BA03BA077A007A047A027A067A01C0
:105440007A057A037A07FA00FA04FA02FA06FA01F0
:10545000FA05FA03FA070600060406020606060124
:105460000605060306078600860486028606860170
:105470008605860386074600460446024606460120
:10548000460546034607C600C604C602C606C60150
:10549000C605C603C60726002604260226062601E0
:1054A000260526032607A600A604A602A606A60130
:1054B000A605A603A60766006604660266066601E0
:1054C000660566036607E600E604E602E606E60110
:1054D000E605E603E6071600160416021606160190
:1054E0001605160316079600960496029606960170
:1054F0009605960396075600560456025606560120
:10550000560556035607D600D604D602D606D6014F
:10551000D605D603D60736003604360236063601DF
:10552000360536033607B600B604B602B606B6012F
:10553000B605B603B60776007604760276067601DF
:10554000760576037607F600F604F602F606F6010F
:10555000F605F603F6070E000E040E020E060E0107
:105560000E050E030E078E008E048E028E068E012F
:105570008E058E038E074E004E044E024E064E01DF
:105580004E054E034E07CE00CE04CE02CE06CE010F
:10559000CE05CE03CE072E002E042E022E062E019F
:1055A0002E052E032E07AE00AE04AE02AE06AE01EF
:1055B000AE05AE03AE076E006E046E026E066E019F
:1055C0006E056E036E07EE00EE04EE02EE06EE01CF
:1055D000EE05EE03EE071E001E041E021E061E014F
:1055E0001E051E031E079E009E049E029E069E012F
:1055F0009E059E039E075E005E045E025E065E01DF
:105600005E055E035E07DE00DE04DE02DE06DE010E
:10561000DE05DE03DE073E003E043E023E063E019E
:105620003E053E033E07BE00BE04BE02BE06BE01EE
:10563000BE05BE03BE077E007E047E027E067E019E
:105640007E057E037E07FE00FE04FE02FE06FE01CE
:10565000FE05FE03FE0701000000803F0000000081
:10566000ECFF7F3FD40FC93AB1FF7F3FC70F493BE3
:105670004EFF7F3FC1CB963BC4FE7F3F890FC93BA6
:1056800013FE7F3F3053FB3B39FD7F3F59CB163C28
:1056900039FC7F3F02ED2F3C11FB7F3F900E493CD0
:1056A000C1F97F3F0030623C4AF87F3F4B517B3C61
:1056B000ACF67F3F38398A3CE6F47F3FB6C9963C6A
:1056C000F8F27F3F1C5AA33CE3F07F3F69EAAF3C0E
:1056D000A7EE7F3F9B7ABC3C43EC7F3FB00AC93CBE
:1056E000B8E97F3FA69AD53C05E77F3F7B2AE23C9D
:1056F0002BE47F3F2DBAEE3C29E17F3FB949FB3CCB
:1057000000DE7F3F90EC033DAFDA7F3F2F340A3D50
:1057100037D77F3FB87B103D98D37F3F2CC3163DD2
:10572000D1CF7F3F880A1D3DE2CB7F3FCC51233D47
:10573000CCC77F3FF698293D8FC37F3F07E02F3DC1
:105740002ABF7F3FFC26363D9EBA7F3FD56D3C3D4C
:10575000EAB57F3F91B4423D0FB17F3F2FFB483DFB
:105760000DAC7F3FAF414F3DE3A67F3F0E88553DD7
:1057700091A17F3F4CCE5B3D189C7F3F6814623DFA
:1057800078967F3F625A683DB1907F3F38A06E3D6A
:10579000C28A7F3FE9E5743DAB847F3F742B7B3D3C
:1057A0006D7E7F3F6CB8803D08787F3F0ADB833D8C
:1057B0007B717F3F94FD863DC76A7F3F0A208A3D0B
:1057C000EC637F3F6A428D3DE95C7F3FB464903D6E
:1057D000BF557F3FE786933D6D4E7F3F05A9963DC0
:1057E000F4467F3F0ACB993D543F7F3FF9EC9C3D07
:1057F0008D377F3FCF0EA03D9D2F7F3F8C30A33D47
:1058000087277F3F3052A63D491F7F3FBA73A93D8E
:10581000E4167F3F2B95AC3D580E7F3F80B6AF3DE1
:10582000A4057F3FBBD7B23DC9FC7E3FDAF8B53D4A
:10583000C7F37E3FDD19B93D9DEA7E3FC33ABC3DCB
:105840004CE17E3F8D5BBF3DD4D77E3F397CC23D6E
:1058500034CE7E3FC69CC53D6DC47E3F36BDC83D3F
:105860007FBA7E3F86DDCB3D69B07E3FB7FDCE3D42
:105870002DA67E3FC81DD23DC99B7E3FB93DD53D7B
:105880003D917E3F895DD83D8B867E3F377DDB3DF8
:10589000B17B7E3FC49CDE3DB0707E3F2EBCE13DBF
:1058A00088657E3F76DBE43D385A7E3F9AFAE73DD5
:1058B000C14E7E3F9A19EB3D23437E3F7638EE3D45
:1058C0005E377E3F2E57F13D722B7E3FC075F43D13
:1058D0005E1F7E3F2C94F73D24137E3F73B2FA3D4A
:1058E000C2067E3F92D0FD3D38FA7D3F4577003EAF
:1058F00088ED7D3F2E06023EB1E07D3F0295033EDE
:10590000B2D37D3FC223053E8CC67D3F6EB2063EBC
:1059100040B97D3F0541083ECCAB7D3F86CF093E77
:10592000309E7D3FF35D0B3E6E907D3F4AEC0C3E1A
:1059300085827D3F8B7A0E3E74747D3FB708103EA2
:105940003D667D3FCC96113EDE577D3FCA24133E17
:1059500059497D3FB2B2143EAC3A7D3F8340163E7A
:10596000D82B7D3F3DCE173EDD1C7D3FE05B193ED1
:10597000BC0D7D3F6BE91A3E73FE7C3FDE761C3E1C
:1059800003EF7C3F38041E3E6CDF7C3F7B911F3E63
:10599000AECF7C3FA51E213EC9BF7C3FB6AB223EA9
:1059A000BDAF7C3FAD38243E8A9F7C3F8CC5253EF1
:1059B000318F7C3F5152273EB07E7C3FFCDE283E3B
:1059C000086E7C3F8D6B2A3E3A5D7C3F04F82B3E8F
:1059D000444C7C3F61842D3E283B7C3FA2102F3EEF
:1059E000E5297C3FC99C303E7A187C3FD428323E62
:1059F000E9067C3FC4B4333E31F57B3F9840353EE9
:105A000053E37B3F50CC363E4DD17B3FEC57383E85
:105A100020BF7B3F6CE3393ECDAC7B3FCF6E3B3E3E
:105A2000539A7B3F15FA3C3EB2877B3F3E853E3E14
:105A3000EA747B3F4910403EFC617B3F379B413E0F
:105A4000E74E7B3F0726433EAB3B7B3FB9B0443E2E
:105A500048287B3F4D3B463EBE147B3FC2C5473E78
:105A60000E017B3F1850493E37ED7A3F4FDA4A3EF0
:105A70003AD97A3F67644C3E16C57A3F60EE4D3E98
:105A8000CBB07A3F38784F3E599C7A3FF101513E76
:105A9000C1877A3F898B523E02737A3F0115543E8B
:105AA0001C5E7A3F589E553E10497A3F8F27573EDD
:105AB000DD337A3FA4B0583E841E7A3F97395A3E70
:105AC00004097A3F6AC25B3E5EF3793F1A4B5D3E42
:105AD00091DD793FA8D35E3E9DC7793F135C603E60
